{
  "contractName": "images",
  "abi": [
    {
      "inputs": [
        {
          "internalType": "string",
          "name": "",
          "type": "string"
        }
      ],
      "name": "imagesMap",
      "outputs": [
        {
          "internalType": "string",
          "name": "name",
          "type": "string"
        },
        {
          "internalType": "string",
          "name": "content",
          "type": "string"
        }
      ],
      "stateMutability": "view",
      "type": "function"
    },
    {
      "inputs": [
        {
          "internalType": "string",
          "name": "_name",
          "type": "string"
        }
      ],
      "name": "getImage",
      "outputs": [
        {
          "components": [
            {
              "internalType": "string",
              "name": "name",
              "type": "string"
            },
            {
              "internalType": "string",
              "name": "content",
              "type": "string"
            }
          ],
          "internalType": "struct images.image",
          "name": "_imageStruct",
          "type": "tuple"
        }
      ],
      "stateMutability": "view",
      "type": "function"
    },
    {
      "inputs": [
        {
          "internalType": "string",
          "name": "_name",
          "type": "string"
        },
        {
          "internalType": "string",
          "name": "_content",
          "type": "string"
        }
      ],
      "name": "saveImage",
      "outputs": [
        {
          "components": [
            {
              "internalType": "string",
              "name": "name",
              "type": "string"
            },
            {
              "internalType": "string",
              "name": "content",
              "type": "string"
            }
          ],
          "internalType": "struct images.image",
          "name": "_newImage",
          "type": "tuple"
        }
      ],
      "stateMutability": "nonpayable",
      "type": "function"
    }
  ],
  "bytecode": "0x608060405234801561000f575f80fd5b50610ab18061001d5f395ff3fe608060405234801561000f575f80fd5b506004361061003f575f3560e01c8063784c02ff14610043578063c24a91a714610074578063e802bf7d146100a4575b5f80fd5b61005d60048036038101906100589190610544565b6100d4565b60405161006b929190610605565b60405180910390f35b61008e6004803603810190610089919061063a565b610217565b60405161009b9190610739565b60405180910390f35b6100be60048036038101906100b99190610544565b610287565b6040516100cb9190610739565b60405180910390f35b5f818051602081018201805184825260208301602085012081835280955050505050505f91509050805f01805461010a90610786565b80601f016020809104026020016040519081016040528092919081815260200182805461013690610786565b80156101815780601f1061015857610100808354040283529160200191610181565b820191905f5260205f20905b81548152906001019060200180831161016457829003601f168201915b50505050509080600101805461019690610786565b80601f01602080910402602001604051908101604052809291908181526020018280546101c290610786565b801561020d5780601f106101e45761010080835404028352916020019161020d565b820191905f5260205f20905b8154815290600101906020018083116101f057829003601f168201915b5050505050905082565b61021f6103dd565b6040518060400160405280848152602001838152509050805f8460405161024691906107f0565b90815260200160405180910390205f820151815f01908161026791906109ac565b50602082015181600101908161027d91906109ac565b5090505092915050565b61028f6103dd565b5f8260405161029e91906107f0565b90815260200160405180910390206040518060400160405290815f820180546102c690610786565b80601f01602080910402602001604051908101604052809291908181526020018280546102f290610786565b801561033d5780601f106103145761010080835404028352916020019161033d565b820191905f5260205f20905b81548152906001019060200180831161032057829003601f168201915b5050505050815260200160018201805461035690610786565b80601f016020809104026020016040519081016040528092919081815260200182805461038290610786565b80156103cd5780601f106103a4576101008083540402835291602001916103cd565b820191905f5260205f20905b8154815290600101906020018083116103b057829003601f168201915b5050505050815250509050919050565b604051806040016040528060608152602001606081525090565b5f604051905090565b5f80fd5b5f80fd5b5f80fd5b5f80fd5b5f601f19601f8301169050919050565b7f4e487b71000000000000000000000000000000000000000000000000000000005f52604160045260245ffd5b61045682610410565b810181811067ffffffffffffffff8211171561047557610474610420565b5b80604052505050565b5f6104876103f7565b9050610493828261044d565b919050565b5f67ffffffffffffffff8211156104b2576104b1610420565b5b6104bb82610410565b9050602081019050919050565b828183375f83830152505050565b5f6104e86104e384610498565b61047e565b9050828152602081018484840111156105045761050361040c565b5b61050f8482856104c8565b509392505050565b5f82601f83011261052b5761052a610408565b5b813561053b8482602086016104d6565b91505092915050565b5f6020828403121561055957610558610400565b5b5f82013567ffffffffffffffff81111561057657610575610404565b5b61058284828501610517565b91505092915050565b5f81519050919050565b5f82825260208201905092915050565b5f5b838110156105c25780820151818401526020810190506105a7565b5f8484015250505050565b5f6105d78261058b565b6105e18185610595565b93506105f18185602086016105a5565b6105fa81610410565b840191505092915050565b5f6040820190508181035f83015261061d81856105cd565b9050818103602083015261063181846105cd565b90509392505050565b5f80604083850312156106505761064f610400565b5b5f83013567ffffffffffffffff81111561066d5761066c610404565b5b61067985828601610517565b925050602083013567ffffffffffffffff81111561069a57610699610404565b5b6106a685828601610517565b9150509250929050565b5f82825260208201905092915050565b5f6106ca8261058b565b6106d481856106b0565b93506106e48185602086016105a5565b6106ed81610410565b840191505092915050565b5f604083015f8301518482035f86015261071282826106c0565b9150506020830151848203602086015261072c82826106c0565b9150508091505092915050565b5f6020820190508181035f83015261075181846106f8565b905092915050565b7f4e487b71000000000000000000000000000000000000000000000000000000005f52602260045260245ffd5b5f600282049050600182168061079d57607f821691505b6020821081036107b0576107af610759565b5b50919050565b5f81905092915050565b5f6107ca8261058b565b6107d481856107b6565b93506107e48185602086016105a5565b80840191505092915050565b5f6107fb82846107c0565b915081905092915050565b5f819050815f5260205f209050919050565b5f6020601f8301049050919050565b5f82821b905092915050565b5f600883026108627fffffffffffffffffffffffffffffffffffffffffffffffffffffffffffffffff82610827565b61086c8683610827565b95508019841693508086168417925050509392505050565b5f819050919050565b5f819050919050565b5f6108b06108ab6108a684610884565b61088d565b610884565b9050919050565b5f819050919050565b6108c983610896565b6108dd6108d5826108b7565b848454610833565b825550505050565b5f90565b6108f16108e5565b6108fc8184846108c0565b505050565b5b8181101561091f576109145f826108e9565b600181019050610902565b5050565b601f8211156109645761093581610806565b61093e84610818565b8101602085101561094d578190505b61096161095985610818565b830182610901565b50505b505050565b5f82821c905092915050565b5f6109845f1984600802610969565b1980831691505092915050565b5f61099c8383610975565b9150826002028217905092915050565b6109b58261058b565b67ffffffffffffffff8111156109ce576109cd610420565b5b6109d88254610786565b6109e3828285610923565b5f60209050601f831160018114610a14575f8415610a02578287015190505b610a0c8582610991565b865550610a73565b601f198416610a2286610806565b5f5b82811015610a4957848901518255600182019150602085019450602081019050610a24565b86831015610a665784890151610a62601f891682610975565b8355505b6001600288020188555050505b50505050505056fea2646970667358221220b867bb994fe0c1fafc1dd6e49fa2e99074c8178d8d64599c30c8c5d499c29a7c64736f6c63430008150033",
  "immutableReferences": {},
  "source": "// SPDX-License-Identifier: GPL-3.0\n\npragma solidity >=0.8.2 <0.9.0;\n\ncontract images {\n    struct image {\n        string name;\n        string content;\n    }\n\n    mapping (string => image) public imagesMap;\n\n    function getImage(string memory _name) public view returns (image memory _imageStruct) {\n        return imagesMap[_name];\n    }\n\n    function saveImage(string memory _name, string memory _content) external returns (image memory _newImage) {\n        _newImage = image(_name, _content);\n\n        imagesMap[_name] = _newImage;\n\n        return _newImage;\n    }\n}\n",
  "sourcePath": "/home/alnnu/Projects/blockimages/blockchain/contracts/image.sol",
  "compiler": {
    "name": "solc",
    "version": "0.8.21+commit.d9974bed.Emscripten.clang"
  },
  "schemaVersion": "3.4.16",
  "updatedAt": "2025-07-23T13:42:31.570Z",
  "devdoc": {
    "kind": "dev",
    "methods": {},
    "version": 1
  },
  "userdoc": {
    "kind": "user",
    "methods": {},
    "version": 1
  }
}